:020000040000FA
:100000000C945D000C9485000C9485000C94850084
:100010000C9485000C9485000C9485000C9485004C
:100020000C9485000C9485000C9485000C94CF02F0
:100030000C9485000C9485000C9485000C9485002C
:100040000C942D020C9485000C949D020C94770264
:100050000C9485000C9485000C9485000C9485000C
:100060000C9485000C9485000000000024002700FB
:100070002A0000000000250028002B0004040404CE
:100080000404040402020202020203030303030342
:10009000010204081020408001020408102001021F
:1000A00004081020000000080002010000030407FB
:1000B00000000000000000009E0411241FBECFEFCE
:1000C000D8E0DEBFCDBF11E0A0E0B1E0E2E6FEE0A7
:1000D00002C005900D92A232B107D9F721E0A2E249
:1000E000B1E001C01D92A93CB207E1F710E0CDE5F7
:1000F000D0E004C02197FE010E942907CC35D1072A
:10010000C9F70E94FD020C942F070C940000E1EB4C
:10011000F0E02491EDE9F0E09491E9E8F0E0E49179
:10012000EE23C9F0222339F0233001F1A8F4213065
:1001300019F1223029F1F0E0EE0FFF1FEE58FF4FCA
:10014000A591B4912FB7F894EC91811126C09095A8
:100150009E239C932FBF08952730A9F02830C9F023
:10016000243049F7209180002F7D03C0209180002A
:100170002F7720938000DFCF24B52F7724BDDBCFEE
:1001800024B52F7DFBCF2091B0002F772093B000B6
:10019000D2CF2091B0002F7DF9CF9E2BDACFAF9236
:1001A000BF92CF92DF92EF92FF920F931F93CF9364
:1001B000DF936C017B018B01040F151FEB015E01C6
:1001C000AE18BF08C017D10759F06991D601ED915B
:1001D000FC910190F081E02DC6010995892B79F7FA
:1001E000C501DF91CF911F910F91FF90EF90DF90AC
:1001F000CF90BF90AF900895FC01538D448D252F73
:1002000030E0842F90E0821B930B541710F0CF96B0
:10021000089501970895FC01918D828D981761F0E2
:10022000A28DAE0FBF2FB11D5D968C91928D9F5FF9
:100230009F73928F90E008958FEF9FEF0895FC01D8
:10024000918D828D981731F0828DE80FF11D858D8B
:1002500090E008958FEF9FEF0895FC01918D228D1E
:10026000892F90E0805C9F4F821B91098F739927A3
:1002700008958CE291E00E942D0121E0892B09F480
:1002800020E0822F089580E090E0892B29F00E94E1
:10029000390181110C9400000895FC01A48DA80F70
:1002A000B92FB11DA35ABF4F2C91848D90E00196B8
:1002B0008F739927848FA689B7892C93A089B189D8
:1002C0008C91837080648C93938D848D981306C079
:1002D0000288F389E02D80818F7D80830895EF92DD
:1002E000FF920F931F93CF93DF93EC0181E0888FF0
:1002F0009B8D8C8D98131AC0E889F989808185FFC0
:1003000015C09FB7F894EE89FF896083E889F98961
:1003100080818370806480839FBF81E090E0DF9163
:10032000CF911F910F91FF90EF900895F62E0B8DB6
:1003300010E00F5F1F4F0F731127E02E8C8D8E1171
:100340000CC00FB607FCFACFE889F989808185FFD8
:10035000F5CFCE010E944D01F1CFEB8DEC0FFD2FBB
:10036000F11DE35AFF4FF0829FB7F8940B8FEA8993
:10037000FB8980818062CFCFCF93DF93EC01888DA2
:100380008823B9F0AA89BB89E889F9898C9185FD10
:1003900003C0808186FD0DC00FB607FCF7CF8C919E
:1003A00085FFF2CF808185FFEDCFCE010E944D0108
:1003B000E9CFDF91CF910895FC0101900020E9F78A
:1003C0003197AF01481B590BBC018CE291E00C94B2
:1003D000CF008F929F92AF92BF920F931F93CF93B4
:1003E000DF93CDB7DEB7A1970FB6F894DEBF0FBE8F
:1003F000CDBF19A2423008F44AE08E010F5D1F4FB5
:10040000842E912CB12CA12CA50194010E940707E8
:10041000E62FB901CA01EA30F4F4E05DD801EE93A9
:100420008D01232B242B252B79F790E080E010976A
:1004300019F0CD010E94DC01A1960FB6F894DEBF41
:100440000FBECDBFDF91CF911F910F91BF90AF90A5
:100450009F908F900895E95CE1CF1F920F920FB6A5
:100460000F9211242F933F938F939F93AF93BF933A
:100470008091280190912901A0912A01B0912B012E
:100480003091270123E0230F2D3758F50196A11D48
:10049000B11D209327018093280190932901A093F7
:1004A0002A01B0932B018091230190912401A09106
:1004B0002501B09126010196A11DB11D8093230154
:1004C00090932401A0932501B0932601BF91AF9191
:1004D0009F918F913F912F910F900FBE0F901F9082
:1004E000189526E8230F0296A11DB11DD2CF1F92A9
:1004F0000F920FB60F9211242F933F934F935F9358
:100500006F937F938F939F93AF93BF93EF93FF93DB
:100510008CE291E00E944D01FF91EF91BF91AF916C
:100520009F918F917F916F915F914F913F912F910B
:100530000F900FBE0F901F9018951F920F920FB63D
:100540000F9211242F938F939F93EF93FF93E0913A
:100550003C01F0913D018081E0914201F091430125
:1005600082FD1BC09081809145018F5F8F73209128
:100570004601821741F0E0914501F0E0E45DFE4F55
:10058000958F80934501FF91EF919F918F912F91CE
:100590000F900FBE0F901F9018958081F4CF1F927F
:1005A0000F920FB60F9211242F933F934F935F93A7
:1005B0006F937F938F939F93AF93BF93EF93FF932B
:1005C00010928500109284008091220191E0892789
:1005D000809322010E948700FF91EF91BF91AF911C
:1005E0009F918F917F916F915F914F913F912F914B
:1005F0000F900FBE0F901F901895789484B582606D
:1006000084BD84B5816084BD85B5826085BD85B5B6
:10061000816085BD80916E00816080936E00109234
:1006200081008091810082608093810080918100AF
:100630008160809381008091800081608093800040
:100640008091B10084608093B1008091B00081609E
:100650008093B00080917A00846080937A008091CA
:100660007A00826080937A0080917A008160809322
:100670007A0080917A00806880937A001092C1009D
:10068000E0913C01F0913D0182E08083E0913801EE
:10069000F09139011082E0913A01F0913B018FEC29
:1006A000808310924401E0914001F091410186E085
:1006B0008083E0913E01F0913F01808180618083E1
:1006C000E0913E01F0913F01808188608083E0915C
:1006D0003E01F0913F01808180688083E0913E017E
:1006E000F0913F0180818F7D8083EDE9F0E02491DE
:1006F000E9E8F0E08491882399F090E0880F991F51
:10070000FC01E859FF4FA591B491FC01EE58FF4F51
:10071000859194918FB7F894EC91E22BEC938FBF75
:1007200080E00E94870010928000809181008460A8
:1007300080938100809181008D7F809381008091E2
:1007400081008E7F8093810010928500109284003A
:1007500089E09DE3909389008093880082E08093F4
:100760006F00789402E11AE7C9E0DDE380E0282E0B
:1007700080E0382E80E480937C0080917A00806451
:1007800080937A0080917A0086FDFCCF609178009A
:1007900070917900072E000C880B990B0E94E005E0
:1007A00020E030E04AEF53E40E94950620E030EC70
:1007B0004FE754E40E943D056B017C01AC019B01B5
:1007C0000E940207882319F182E191E00E94DC0176
:1007D0008EE191E00E94DC0120E030E040EF51E446
:1007E000C701B6010E94380518160CF4A2C0D093B8
:1007F0008900C09388002114310409F4BBCF0E9402
:100800003901882309F4B6CF0E940000B3CF460116
:100810005701E894B7F82FEF3FEF4FE75FE7C501C7
:10082000B4010E94020781110DC02FEF3FEF4FE787
:100830005FE7C501B4010E94380518161CF486E173
:1008400091E0C4CF2FEF3FEF4FE75FE4C701B60160
:100850000E94900618161CF48AE191E0B7CF2FEFA2
:100860003FEF4FE75FECC701B6010E94380587FDF7
:10087000F3CF20E030E0A901C701B6010E9438059E
:1008800087FF54C06DE28CE291E00E946F01C701C6
:10089000B60190582AE037ED43EA5BE30E94CC04AE
:1008A0002B013C010E94AF054B015C010E94DE055B
:1008B0009B01AC01C301B2010E94CB042B013C019E
:1008C0004AE0C501B4010E94E9016EE28CE291E0C8
:1008D0000E946F0120E030E040E251E4C301B20128
:1008E0000E9495062B013C010E94AF054B01B12CE3
:1008F000A12C4AE0C501B4010E94E901C501B4017F
:100900000E94DE059B01AC01C301B2010E94CB0431
:1009100020E030E040E251E40E9495060E94AF05DD
:1009200090E080E04AE00E94E90152CFC701B601A1
:10093000B1CF10938900009388005DCFECE2F1E025
:100940001382128288EE93E0A0E0B0E08483958366
:10095000A683B78384E091E09183808385EC90E067
:100960009587848784EC90E09787868780EC90E079
:10097000918B808B81EC90E0938B828B82EC90E06A
:10098000958B848B86EC90E0978B868B118E128EE4
:10099000138E148E08955058BB27AA270E94E30493
:1009A0000C9456060E94480638F00E944F0620F02C
:1009B00039F49F3F19F426F40C9445060EF4E095A3
:1009C000E7FB0C943F06E92F0E94670658F3BA171D
:1009D000620773078407950720F079F4A6F50C9455
:1009E00089060EF4E0950B2EBA2FA02D0B01B9014C
:1009F00090010C01CA01A0011124FF27591B99F095
:100A0000593F50F4503E68F11A16F040A22F232FA0
:100A1000342F4427585FF3CF469537952795A795F0
:100A2000F0405395C9F77EF41F16BA0B620B730B97
:100A3000840BBAF09150A1F0FF0FBB1F661F771F08
:100A4000881FC2F70EC0BA0F621F731F841F48F4BD
:100A5000879577956795B795F7959E3F08F0B0CF46
:100A60009395880F08F09927EE0F9795879508952D
:100A70000E941B0608F481E008950E9451050C9421
:100A800056060E944F0658F00E94480640F029F48E
:100A90005F3F29F00C943F0651110C948A060C9488
:100AA00045060E94670668F39923B1F3552391F335
:100AB000951B550BBB27AA2762177307840738F0CD
:100AC0009F5F5F4F220F331F441FAA1FA9F335D02A
:100AD0000E2E3AF0E0E832D091505040E695001CDE
:100AE000CAF72BD0FE2F29D0660F771F881FBB1F98
:100AF000261737074807AB07B0E809F0BB0B802D76
:100B0000BF01FF2793585F4F3AF09E3F510578F0A1
:100B10000C943F060C948A065F3FE4F3983ED4F3AE
:100B2000869577956795B795F7959F5FC9F7880F75
:100B3000911D9695879597F90895E1E0660F771FC7
:100B4000881FBB1F621773078407BA0720F0621B58
:100B5000730B840BBA0BEE1F88F7E09508950E9483
:100B60006F0688F09F5798F0B92F9927B751B0F0CA
:100B7000E1F0660F771F881F991F1AF0BA95C9F721
:100B800014C0B13091F00E948906B1E008950C9430
:100B90008906672F782F8827B85F39F0B93FCCF3E3
:100BA000869577956795B395D9F73EF4909580959E
:100BB000709561957F4F8F4F9F4F0895E89409C0BE
:100BC00097FB3EF490958095709561957F4F8F4F80
:100BD0009F4F9923A9F0F92F96E9BB279395F69596
:100BE000879577956795B795F111F8CFFAF4BB0F14
:100BF00011F460FF1BC06F5F7F4F8F4F9F4F16C078
:100C0000882311F096E911C0772321F09EE8872F01
:100C1000762F05C0662371F096E8862F70E060E0BD
:100C20002AF09A95660F771F881FDAF7880F969536
:100C3000879597F90895990F0008550FAA0BE0E8DA
:100C4000FEEF16161706E807F907C0F0121613068E
:100C5000E407F50798F0621B730B840B950B39F4CE
:100C60000A2661F0232B242B252B21F408950A2634
:100C700009F4A140A6958FEF811D811D089597F974
:100C80009F6780E870E060E008959FEF80EC089532
:100C900000240A941616170618060906089500245B
:100CA0000A9412161306140605060895092E0394D5
:100CB000000C11F4882352F0BB0F40F4BF2B11F449
:100CC00060FF04C06F5F7F4F8F4F9F4F089557FDA8
:100CD0009058440F551F59F05F3F71F04795880FAA
:100CE00097FB991F61F09F3F79F087950895121641
:100CF00013061406551FF2CF4695F1DF08C01616ED
:100D000017061806991FF1CF86957105610508949D
:100D10000895E894BB2766277727CB0197F90895B4
:100D20000E941B0608F48FEF08950E94A8060C94F9
:100D300056060E94480638F00E944F0620F0952380
:100D400011F00C943F060C94450611240C948A066D
:100D50000E94670670F3959FC1F3950F50E0551FF1
:100D6000629FF001729FBB27F00DB11D639FAA2700
:100D7000F00DB11DAA1F649F6627B00DA11D661F4F
:100D8000829F2227B00DA11D621F739FB00DA11D70
:100D9000621F839FA00D611D221F749F3327A00D2A
:100DA000611D231F849F600D211D822F762F6A2FC6
:100DB00011249F5750409AF0F1F088234AF0EE0F2B
:100DC000FF1FBB1F661F771F881F91505040A9F758
:100DD0009E3F510580F00C943F060C948A065F3FBD
:100DE000E4F3983ED4F3869577956795B795F79594
:100DF000E7959F5FC1F7FE2B880F911D969587950C
:100E000097F908950E941B06880B990B0895A1E29B
:100E10001A2EAA1BBB1BFD010DC0AA1FBB1FEE1F74
:100E2000FF1FA217B307E407F50720F0A21BB30BBF
:100E3000E40BF50B661F771F881F991F1A9469F73B
:100E400060957095809590959B01AC01BD01CF0197
:100E50000895EE0FFF1F0590F491E02D0994F8948A
:100E6000FFCF000000006F01CF00FC00BC012D018E
:100E70000B011F016E616E00696E66006F76660081
:040E80000D0A000057
:107E0000112484B714BE81FFF0D085E080938100F7
:107E100082E08093C00088E18093C10086E0809377
:107E2000C20080E18093C4008EE0C9D0259A86E02C
:107E300020E33CEF91E0309385002093840096BBD3
:107E4000B09BFECF1D9AA8958150A9F7CC24DD24C4
:107E500088248394B5E0AB2EA1E19A2EF3E0BF2EE7
:107E6000A2D0813461F49FD0082FAFD0023811F036
:107E7000013811F484E001C083E08DD089C08234E0
:107E800011F484E103C0853419F485E0A6D080C0E4
:107E9000853579F488D0E82EFF2485D0082F10E0AE
:107EA000102F00270E291F29000F111F8ED06801E7
:107EB0006FC0863521F484E090D080E0DECF843638
:107EC00009F040C070D06FD0082F6DD080E0C81688
:107ED00080E7D80618F4F601B7BEE895C0E0D1E017
:107EE00062D089930C17E1F7F0E0CF16F0E7DF06D8
:107EF00018F0F601B7BEE89568D007B600FCFDCFD4
:107F0000A601A0E0B1E02C9130E011968C91119780
:107F100090E0982F8827822B932B1296FA010C0160
:107F200087BEE89511244E5F5F4FF1E0A038BF0790
:107F300051F7F601A7BEE89507B600FCFDCF97BE46
:107F4000E89526C08437B1F42ED02DD0F82E2BD052
:107F50003CD0F601EF2C8F010F5F1F4F84911BD097
:107F6000EA94F801C1F70894C11CD11CFA94CF0C13
:107F7000D11C0EC0853739F428D08EE10CD085E9AC
:107F80000AD08FE07ACF813511F488E018D01DD067
:107F900080E101D065CF982F8091C00085FFFCCF94
:107FA0009093C60008958091C00087FFFCCF809118
:107FB000C00084FD01C0A8958091C6000895E0E648
:107FC000F0E098E1908380830895EDDF803219F02E
:107FD00088E0F5DFFFCF84E1DECF1F93182FE3DFCA
:107FE0001150E9F7F2DF1F91089580E0E8DFEE27F6
:047FF000FF270994CA
:027FFE00040479
:00000001FF
